{
  "contractName": "TokenFarm",
  "abi": [
    {
      "inputs": [
        {
          "internalType": "contract DappToken",
          "name": "_dappToken",
          "type": "address"
        },
        {
          "internalType": "contract DaiToken",
          "name": "_daiToken",
          "type": "address"
        }
      ],
      "stateMutability": "nonpayable",
      "type": "constructor"
    },
    {
      "inputs": [],
      "name": "daiToken",
      "outputs": [
        {
          "internalType": "contract DaiToken",
          "name": "",
          "type": "address"
        }
      ],
      "stateMutability": "view",
      "type": "function",
      "constant": true
    },
    {
      "inputs": [],
      "name": "dappToken",
      "outputs": [
        {
          "internalType": "contract DappToken",
          "name": "",
          "type": "address"
        }
      ],
      "stateMutability": "view",
      "type": "function",
      "constant": true
    },
    {
      "inputs": [
        {
          "internalType": "address",
          "name": "",
          "type": "address"
        }
      ],
      "name": "hasStaked",
      "outputs": [
        {
          "internalType": "bool",
          "name": "",
          "type": "bool"
        }
      ],
      "stateMutability": "view",
      "type": "function",
      "constant": true
    },
    {
      "inputs": [
        {
          "internalType": "address",
          "name": "",
          "type": "address"
        }
      ],
      "name": "isStaking",
      "outputs": [
        {
          "internalType": "bool",
          "name": "",
          "type": "bool"
        }
      ],
      "stateMutability": "view",
      "type": "function",
      "constant": true
    },
    {
      "inputs": [],
      "name": "name",
      "outputs": [
        {
          "internalType": "string",
          "name": "",
          "type": "string"
        }
      ],
      "stateMutability": "view",
      "type": "function",
      "constant": true
    },
    {
      "inputs": [],
      "name": "owner",
      "outputs": [
        {
          "internalType": "address",
          "name": "",
          "type": "address"
        }
      ],
      "stateMutability": "view",
      "type": "function",
      "constant": true
    },
    {
      "inputs": [
        {
          "internalType": "uint256",
          "name": "",
          "type": "uint256"
        }
      ],
      "name": "stakers",
      "outputs": [
        {
          "internalType": "address",
          "name": "",
          "type": "address"
        }
      ],
      "stateMutability": "view",
      "type": "function",
      "constant": true
    },
    {
      "inputs": [
        {
          "internalType": "address",
          "name": "",
          "type": "address"
        }
      ],
      "name": "stakingBalance",
      "outputs": [
        {
          "internalType": "uint256",
          "name": "",
          "type": "uint256"
        }
      ],
      "stateMutability": "view",
      "type": "function",
      "constant": true
    },
    {
      "inputs": [
        {
          "internalType": "uint256",
          "name": "_amount",
          "type": "uint256"
        }
      ],
      "name": "stakeTokens",
      "outputs": [],
      "stateMutability": "nonpayable",
      "type": "function"
    },
    {
      "inputs": [],
      "name": "unstakeTokens",
      "outputs": [],
      "stateMutability": "nonpayable",
      "type": "function"
    },
    {
      "inputs": [],
      "name": "issueTokens",
      "outputs": [],
      "stateMutability": "nonpayable",
      "type": "function"
    }
  ],
  "bytecode": "0x60806040526040518060400160405280600f81526020017f4461707020546f6b656e204661726d0000000000000000000000000000000000815250600090816200004a9190620003c3565b503480156200005857600080fd5b50604051620016513803806200165183398181016040528101906200007e91906200056d565b81600260006101000a81548173ffffffffffffffffffffffffffffffffffffffff021916908373ffffffffffffffffffffffffffffffffffffffff16021790555080600360006101000a81548173ffffffffffffffffffffffffffffffffffffffff021916908373ffffffffffffffffffffffffffffffffffffffff16021790555033600160006101000a81548173ffffffffffffffffffffffffffffffffffffffff021916908373ffffffffffffffffffffffffffffffffffffffff1602179055505050620005b4565b600081519050919050565b7f4e487b7100000000000000000000000000000000000000000000000000000000600052604160045260246000fd5b7f4e487b7100000000000000000000000000000000000000000000000000000000600052602260045260246000fd5b60006002820490506001821680620001cb57607f821691505b602082108103620001e157620001e062000183565b5b50919050565b60008190508160005260206000209050919050565b60006020601f8301049050919050565b600082821b905092915050565b6000600883026200024b7fffffffffffffffffffffffffffffffffffffffffffffffffffffffffffffffff826200020c565b6200025786836200020c565b95508019841693508086168417925050509392505050565b6000819050919050565b6000819050919050565b6000620002a46200029e62000298846200026f565b62000279565b6200026f565b9050919050565b6000819050919050565b620002c08362000283565b620002d8620002cf82620002ab565b84845462000219565b825550505050565b600090565b620002ef620002e0565b620002fc818484620002b5565b505050565b5b81811015620003245762000318600082620002e5565b60018101905062000302565b5050565b601f82111562000373576200033d81620001e7565b6200034884620001fc565b8101602085101562000358578190505b620003706200036785620001fc565b83018262000301565b50505b505050565b600082821c905092915050565b6000620003986000198460080262000378565b1980831691505092915050565b6000620003b3838362000385565b9150826002028217905092915050565b620003ce8262000149565b67ffffffffffffffff811115620003ea57620003e962000154565b5b620003f68254620001b2565b6200040382828562000328565b600060209050601f8311600181146200043b576000841562000426578287015190505b620004328582620003a5565b865550620004a2565b601f1984166200044b86620001e7565b60005b8281101562000475578489015182556001820191506020850194506020810190506200044e565b8683101562000495578489015162000491601f89168262000385565b8355505b6001600288020188555050505b505050505050565b600080fd5b600073ffffffffffffffffffffffffffffffffffffffff82169050919050565b6000620004dc82620004af565b9050919050565b6000620004f082620004cf565b9050919050565b6200050281620004e3565b81146200050e57600080fd5b50565b6000815190506200052281620004f7565b92915050565b60006200053582620004cf565b9050919050565b620005478162000528565b81146200055357600080fd5b50565b60008151905062000567816200053c565b92915050565b60008060408385031215620005875762000586620004aa565b5b6000620005978582860162000511565b9250506020620005aa8582860162000556565b9150509250929050565b61108d80620005c46000396000f3fe608060405234801561001057600080fd5b50600436106100a95760003560e01c80637547c7a3116100715780637547c7a3146101545780638da5cb5b14610170578063a5ce413b1461018e578063be22f54614610198578063c93c8f34146101b6578063fd5e6dd1146101e6576100a9565b806306fdde03146100ae57806345bc78ab146100cc5780635eb186f8146100fc57806360ab58521461011a5780636f49712b14610124575b600080fd5b6100b6610216565b6040516100c39190610acb565b60405180910390f35b6100e660048036038101906100e19190610b50565b6102a4565b6040516100f39190610b96565b60405180910390f35b6101046102bc565b6040516101119190610c10565b60405180910390f35b6101226102e2565b005b61013e60048036038101906101399190610b50565b6104cc565b60405161014b9190610c46565b60405180910390f35b61016e60048036038101906101699190610c8d565b6104ec565b005b6101786107c8565b6040516101859190610cc9565b60405180910390f35b6101966107ee565b005b6101a06109b6565b6040516101ad9190610d05565b60405180910390f35b6101d060048036038101906101cb9190610b50565b6109dc565b6040516101dd9190610c46565b60405180910390f35b61020060048036038101906101fb9190610c8d565b6109fc565b60405161020d9190610cc9565b60405180910390f35b6000805461022390610d4f565b80601f016020809104026020016040519081016040528092919081815260200182805461024f90610d4f565b801561029c5780601f106102715761010080835404028352916020019161029c565b820191906000526020600020905b81548152906001019060200180831161027f57829003601f168201915b505050505081565b60056020528060005260406000206000915090505481565b600260009054906101000a900473ffffffffffffffffffffffffffffffffffffffff1681565b600160009054906101000a900473ffffffffffffffffffffffffffffffffffffffff1673ffffffffffffffffffffffffffffffffffffffff163373ffffffffffffffffffffffffffffffffffffffff1614610372576040517f08c379a000000000000000000000000000000000000000000000000000000000815260040161036990610dcc565b60405180910390fd5b60005b6004805490508110156104c95760006004828154811061039857610397610dec565b5b9060005260206000200160009054906101000a900473ffffffffffffffffffffffffffffffffffffffff1690506000600560008373ffffffffffffffffffffffffffffffffffffffff1673ffffffffffffffffffffffffffffffffffffffff16815260200190815260200160002054905060008111156104b457600260009054906101000a900473ffffffffffffffffffffffffffffffffffffffff1673ffffffffffffffffffffffffffffffffffffffff1663a9059cbb83836040518363ffffffff1660e01b815260040161046f929190610e1b565b6020604051808303816000875af115801561048e573d6000803e3d6000fd5b505050506040513d601f19601f820116820180604052508101906104b29190610e70565b505b505080806104c190610ecc565b915050610375565b50565b60076020528060005260406000206000915054906101000a900460ff1681565b6000811161052f576040517f08c379a000000000000000000000000000000000000000000000000000000000815260040161052690610f60565b60405180910390fd5b600360009054906101000a900473ffffffffffffffffffffffffffffffffffffffff1673ffffffffffffffffffffffffffffffffffffffff166323b872dd3330846040518463ffffffff1660e01b815260040161058e93929190610f80565b6020604051808303816000875af11580156105ad573d6000803e3d6000fd5b505050506040513d601f19601f820116820180604052508101906105d19190610e70565b5080600560003373ffffffffffffffffffffffffffffffffffffffff1673ffffffffffffffffffffffffffffffffffffffff1681526020019081526020016000205461061d9190610fb7565b600560003373ffffffffffffffffffffffffffffffffffffffff1673ffffffffffffffffffffffffffffffffffffffff16815260200190815260200160002081905550600660003373ffffffffffffffffffffffffffffffffffffffff1673ffffffffffffffffffffffffffffffffffffffff16815260200190815260200160002060009054906101000a900460ff16610715576004339080600181540180825580915050600190039060005260206000200160009091909190916101000a81548173ffffffffffffffffffffffffffffffffffffffff021916908373ffffffffffffffffffffffffffffffffffffffff1602179055505b6001600760003373ffffffffffffffffffffffffffffffffffffffff1673ffffffffffffffffffffffffffffffffffffffff16815260200190815260200160002060006101000a81548160ff0219169083151502179055506001600660003373ffffffffffffffffffffffffffffffffffffffff1673ffffffffffffffffffffffffffffffffffffffff16815260200190815260200160002060006101000a81548160ff02191690831515021790555050565b600160009054906101000a900473ffffffffffffffffffffffffffffffffffffffff1681565b6000600560003373ffffffffffffffffffffffffffffffffffffffff1673ffffffffffffffffffffffffffffffffffffffff16815260200190815260200160002054905060008111610875576040517f08c379a000000000000000000000000000000000000000000000000000000000815260040161086c90611037565b60405180910390fd5b600360009054906101000a900473ffffffffffffffffffffffffffffffffffffffff1673ffffffffffffffffffffffffffffffffffffffff1663a9059cbb33836040518363ffffffff1660e01b81526004016108d2929190610e1b565b6020604051808303816000875af11580156108f1573d6000803e3d6000fd5b505050506040513d601f19601f820116820180604052508101906109159190610e70565b506000600560003373ffffffffffffffffffffffffffffffffffffffff1673ffffffffffffffffffffffffffffffffffffffff168152602001908152602001600020819055506000600760003373ffffffffffffffffffffffffffffffffffffffff1673ffffffffffffffffffffffffffffffffffffffff16815260200190815260200160002060006101000a81548160ff02191690831515021790555050565b600360009054906101000a900473ffffffffffffffffffffffffffffffffffffffff1681565b60066020528060005260406000206000915054906101000a900460ff1681565b60048181548110610a0c57600080fd5b906000526020600020016000915054906101000a900473ffffffffffffffffffffffffffffffffffffffff1681565b600081519050919050565b600082825260208201905092915050565b60005b83811015610a75578082015181840152602081019050610a5a565b60008484015250505050565b6000601f19601f8301169050919050565b6000610a9d82610a3b565b610aa78185610a46565b9350610ab7818560208601610a57565b610ac081610a81565b840191505092915050565b60006020820190508181036000830152610ae58184610a92565b905092915050565b600080fd5b600073ffffffffffffffffffffffffffffffffffffffff82169050919050565b6000610b1d82610af2565b9050919050565b610b2d81610b12565b8114610b3857600080fd5b50565b600081359050610b4a81610b24565b92915050565b600060208284031215610b6657610b65610aed565b5b6000610b7484828501610b3b565b91505092915050565b6000819050919050565b610b9081610b7d565b82525050565b6000602082019050610bab6000830184610b87565b92915050565b6000819050919050565b6000610bd6610bd1610bcc84610af2565b610bb1565b610af2565b9050919050565b6000610be882610bbb565b9050919050565b6000610bfa82610bdd565b9050919050565b610c0a81610bef565b82525050565b6000602082019050610c256000830184610c01565b92915050565b60008115159050919050565b610c4081610c2b565b82525050565b6000602082019050610c5b6000830184610c37565b92915050565b610c6a81610b7d565b8114610c7557600080fd5b50565b600081359050610c8781610c61565b92915050565b600060208284031215610ca357610ca2610aed565b5b6000610cb184828501610c78565b91505092915050565b610cc381610b12565b82525050565b6000602082019050610cde6000830184610cba565b92915050565b6000610cef82610bdd565b9050919050565b610cff81610ce4565b82525050565b6000602082019050610d1a6000830184610cf6565b92915050565b7f4e487b7100000000000000000000000000000000000000000000000000000000600052602260045260246000fd5b60006002820490506001821680610d6757607f821691505b602082108103610d7a57610d79610d20565b5b50919050565b7f63616c6c6572206d75737420626520746865206f776e65720000000000000000600082015250565b6000610db6601883610a46565b9150610dc182610d80565b602082019050919050565b60006020820190508181036000830152610de581610da9565b9050919050565b7f4e487b7100000000000000000000000000000000000000000000000000000000600052603260045260246000fd5b6000604082019050610e306000830185610cba565b610e3d6020830184610b87565b9392505050565b610e4d81610c2b565b8114610e5857600080fd5b50565b600081519050610e6a81610e44565b92915050565b600060208284031215610e8657610e85610aed565b5b6000610e9484828501610e5b565b91505092915050565b7f4e487b7100000000000000000000000000000000000000000000000000000000600052601160045260246000fd5b6000610ed782610b7d565b91507fffffffffffffffffffffffffffffffffffffffffffffffffffffffffffffffff8203610f0957610f08610e9d565b5b600182019050919050565b7f616d6f756e742063616e6e6f7420626520300000000000000000000000000000600082015250565b6000610f4a601283610a46565b9150610f5582610f14565b602082019050919050565b60006020820190508181036000830152610f7981610f3d565b9050919050565b6000606082019050610f956000830186610cba565b610fa26020830185610cba565b610faf6040830184610b87565b949350505050565b6000610fc282610b7d565b9150610fcd83610b7d565b9250828201905080821115610fe557610fe4610e9d565b5b92915050565b7f7374616b696e672062616c616e63652063616e6e6f7420626520300000000000600082015250565b6000611021601b83610a46565b915061102c82610feb565b602082019050919050565b6000602082019050818103600083015261105081611014565b905091905056fea26469706673582212207b94996d984d3231cdd36a9a4ff1f8d9dce0c4892ae25dfb9437846a52780e8864736f6c63430008130033",
  "immutableReferences": {},
  "source": " // SPDX-License-Identifier: MIT\npragma solidity 0.8.19;\n\nimport \"./DappToken.sol\";\nimport \"./DaiToken.sol\";\n\ncontract TokenFarm {\n    string public name = \"Dapp Token Farm\";\n    address public owner;\n    DappToken public dappToken;\n    DaiToken public daiToken;\n\n    address[] public stakers;\n    mapping(address => uint) public stakingBalance;\n    mapping(address => bool) public hasStaked;\n    mapping(address => bool) public isStaking;\n\n    // assigning contracts adddress to the state variables\n     constructor(DappToken _dappToken, DaiToken _daiToken) {\n        dappToken = _dappToken; \n        daiToken = _daiToken;\n        owner = msg.sender;\n    }\n\n    function stakeTokens(uint _amount) public {\n        // Require amount greater than 0\n        require(_amount > 0, \"amount cannot be 0\");\n\n        // Trasnfer Mock Dai tokens to this contract for staking\n        daiToken.transferFrom(msg.sender, address(this), _amount);\n\n        // Update staking balance\n        stakingBalance[msg.sender] = stakingBalance[msg.sender] + _amount;\n\n        // Add user to stakers array *only* if they haven't staked already\n        if(!hasStaked[msg.sender]) {\n            stakers.push(msg.sender);\n        }\n\n        // Update staking status\n        isStaking[msg.sender] = true;\n        hasStaked[msg.sender] = true;\n    }\n\n    // Unstaking Tokens (Withdraw)\n    function unstakeTokens() public {\n        // Fetch staking balance\n        uint balance = stakingBalance[msg.sender];\n\n        // Require amount greater than 0\n        require(balance > 0, \"staking balance cannot be 0\");\n\n        // Transfer Mock Dai tokens to this contract for staking\n        daiToken.transfer(msg.sender, balance);\n\n        // Reset staking balance\n        stakingBalance[msg.sender] = 0;\n\n        // Update staking status\n        isStaking[msg.sender] = false;\n    }\n\n    // Issuing Tokens\n    function issueTokens() public {\n        // Only owner can call this function\n        require(msg.sender == owner, \"caller must be the owner\");\n\n        // Issue tokens to all stakers\n        for (uint i=0; i<stakers.length; i++) {\n            address recipient = stakers[i];\n            uint balance = stakingBalance[recipient];\n            if(balance > 0) {\n                dappToken.transfer(recipient, balance);\n            }\n        }\n    }\n}\n",
  "sourcePath": "D:\\Blockchain Projects\\Projects\\defi-token-farm\\contracts\\TokenFarm.sol",
  "compiler": {
    "name": "solc",
    "version": "0.8.19+commit.7dd6d404.Emscripten.clang"
  },
  "schemaVersion": "3.4.13",
  "updatedAt": "2023-05-20T07:06:10.922Z",
  "networkType": "ethereum",
  "devdoc": {
    "kind": "dev",
    "methods": {},
    "version": 1
  },
  "userdoc": {
    "kind": "user",
    "methods": {},
    "version": 1
  }
}